:02000000AB282B
:0E0006008312031325088A00240882000800D4
:10001400710DF80DF90D7408F8027508031C750FBD
:10002400F902F00DF10D0F30FC00710DF80DF90D12
:100034007408701C2328F8027508031C750FF90254
:100044002828F80775080318750FF907F00DF10D46
:10005400FC0B1728701834287408F807750803185F
:08006400750FF9070000080008
:10006C00831203137408003A031D45287508003ADF
:10007C00031D4528FF30F0007F30F1009E288312CD
:10008C000313FD01F901F801710870040319003420
:10009C0071087506FA00FA1BFD09FB01F51F5B28B8
:1000AC00F409F509F40A0319F50AF11F6228F0099D
:1000BC00F109F00A0319F10A71087504FA00FA1B28
:1000CC0077280A207B188A28FD1F0034F009F109D3
:1000DC00F00A0319F10AF809F909F80A0319F90ADF
:1000EC000034F51F8628F11B82287108F90070086E
:1000FC00F800F101F0016A28F101F001F00A003476
:10010C00F109F009FB0A6728F80A0319F90A7408BF
:10011C007802031D6A2875087902031D6A28F90103
:10012C00F801F00A0319F10AF11F6A280000FF34E4
:02013C000800B9
:10013E0003208A110A128000840AA40A0319A50A50
:08014E00F003031D9F280800C7
:100156000730831603139F008501831285018030C3
:10016600831688000F308312880083168701831256
:100176008701831686018312860183168516091464
:10018600831228100918FC2C0330A9000030AA009D
:100196001430A6000030A70080302A06F000803018
:1001A6007002031DD82800302902031C4E29803016
:1001B6002706F00080307002031DE3280030260277
:1001C600031C4E290230AB000030AC000A30F400AC
:1001D6000030F5002608F0002708F10036207808E0
:1001E600F0007908F1007008B2007108B300320817
:1001F600B0003308B1000A30F4000030F5002608DC
:10020600F0002708F10036207008AE007108AF0034
:1002160010308800013085000430F3002908F20010
:10022600730803191A29F20D7210FF3E14290230C1
:10023600720486000F307005F2000430F1003208B7
:10024600F000710803192B29F00D7010FF3E2529C7
:10025600700872048700AD0164302D02031842292C
:100266001A30FC00F830FD00FD0B3729FC0B37294E
:100276000000091C402928144229AD0A2F29281CF0
:1002860045294E290130A902031CAA030130A60202
:10029600031CA703CF282818D7290930A900003046
:1002A600AA001030A6000030A70080302A06F00011
:1002B60080307002031D612900302902031CD729F2
:1002C60080302706F00080307002031D6C29003054
:1002D6002602031CD7290130AB000030AC000A30DF
:1002E600F4000030F5002608F0002708F10036205B
:1002F6007808F0007908F1007008B2007108B300C0
:100306003208B0003308B1000A30F4000030F500BE
:100316002608F0002708F10036207008AE007108A4
:10032600AF0010308800013085000430F300290842
:10033600F20073080319A329F20D7210FF3E9D29DE
:100346000130720486000F307005F2000430F100AF
:100356003208F00071080319B429F00D7010FF3E41
:10036600AE29700872048700AD0164302D020318AF
:10037600CB291A30FC00F830FD00FD0BC029FC0B20
:10038600C0290000091CC9292814CB29AD0AB8299F
:10039600281CCE29D7290130A902031CAA03013043
:1003A600A602031CA703582928185D2A0930A900AC
:1003B6000030AA000630A6000030A70080302A06CA
:1003C600F00080307002031DEA2903302902031C65
:1003D6005D2A80302706F00080307002031DF52963
:1003E60000302602031C5D2AAB01AC010A30F40082
:1003F6000030F5002608F0002708F10036207808BE
:10040600F0007908F1007008B2007108B3003208F4
:10041600B0003308B1000A30F4000030F5002608B9
:10042600F0002708F10036207008AE007108AF0012
:1004360010308800013085000430F3002908F200EE
:10044600730803192A2AF20D7210FF3E242A720835
:1004560086000F307005F2000430F1003208F0001B
:10046600710803193A2AF00D7010FF3E342A7008FD
:1004760072048700AD0164302D020318512A1A3028
:10048600FC00F830FD00FD0B462AFC0B462A000056
:10049600091C4F2A2814512AAD0A3E2A281C542A20
:1004A6005D2A0130A902031CAA030130A602031C1F
:1004B600A703E1292818E32A0230A9000030AA0080
:1004C6000330A0000030A10080302A06F000803002
:1004D6007002031D702A00302902031CE32A8030B3
:1004E6002106F00080307002031D7B2A00302002B6
:1004F600031CE32AAB01AC010A30F4000030F5001E
:100506002008F0002108F10036207808F00079086C
:10051600F1007008B2007108B3003208B000330869
:10052600B1000A30F4000030F5002008F000210880
:10053600F10036207008AE007108AF000230850069
:10054600103088000430F3002908F20073080319FC
:10055600B02AF20D7210FF3EAA2A720886000F30EA
:100566007005F2000430F1003208F000710803193A
:10057600C02AF00D7010FF3EBA2A70087204870078
:10058600AD0164302D020318D72A1A30FC00F8306A
:10059600FD00FD0BCC2AFC0BCC2A0000091CD52A39
:1005A6002814D72AAD0AC42A281CDA2AE32A0130DD
:1005B600A902031CAA030130A002031CA103672A97
:1005C6002818672B0330A9000030AA00A001A1015A
:1005D60080302A06F00080307002031DF42A0030B5
:1005E6002902031C672B80302106F0008030700240
:1005F600031DFF2A00302002031C672BAB01AC0150
:100606000A30F4000030F5002008F0002108F1005F
:1006160036207808F0007908F1007008B2007108F9
:10062600B3003208B0003308B1000A30F4000030DD
:10063600F5002008F0002108F10036207008AE0011
:100646007108AF0002308500203088000430F300C6
:100656002908F20073080319342BF20D7210FF3EBD
:100666002E2B720886000F307005F2000430F10060
:100676003208F00071080319442BF00D7010FF3E8C
:100686003E2B700872048700AD0164302D020318FA
:100696005B2B1A30FC00F830FD00FD0B502BFC0BD9
:1006A600502B0000091C592B28145B2BAD0A482B34
:1006B600281C5E2B672B0130A902031CAA030130FC
:1006C600A002031CA103EB2A2818ED2B0230A90077
:1006D6000030AA000F30A2000030A30080302A06A6
:1006E600F00080307002031D7A2B00302902031CB3
:1006F600ED2B80302306F00080307002031D852B21
:1007060000302202031CED2BAB01AC010A30F400D1
:100716000030F5002208F0002308F10036207808A2
:10072600F0007908F1007008B2007108B3003208D1
:10073600B0003308B1000A30F4000030F50022089A
:10074600F0002308F10036207008AE007108AF00F3
:1007560004308500203088000430F3002908F200B8
:1007660073080319BA2BF20D7210FF3EB42B7208F0
:1007760086000F307005F2000430F1003208F000F8
:1007860071080319CA2BF00D7010FF3EC42B7008B8
:1007960072048700AD0164302D020318E12B1A3074
:1007A600FC00F830FD00FD0BD62BFC0BD62B000011
:1007B600091CDF2B2814E12BAD0ACE2B281CE42BB9
:1007C600ED2B0130A902031CAA030130A202031C6F
:1007D600A303712B2818762C0230A9000030AA003A
:1007E6000C30A2000030A30080302A06F0008030D2
:1007F6007002031D002C00302902031C762C803069
:100806002306F00080307002031D0B2C00302202FC
:10081600031C762C0130AB000030AC000A30F4002B
:100826000030F5002208F0002308F1003620780891
:10083600F0007908F1007008B2007108B3003208C0
:10084600B0003308B1000A30F4000030F500220889
:10085600F0002308F10036207008AE007108AF00E2
:1008660004308500403088000430F3002908F20087
:1008760073080319422CF20D7210FF3E3C2C013016
:10088600720486000F307005F2000430F100320861
:10089600F00071080319532CF00D7010FF3E4D2C1B
:1008A600700872048700AD0164302D0203186A2CAB
:1008B6001A30FC00F830FD00FD0B5F2CFC0B5F2CA2
:1008C6000000091C682C28146A2CAD0A572C281C19
:1008D6006D2C762C0130A902031CAA030130A2025A
:1008E600031CA303F72B2818FC2C0930A9000030A1
:1008F600AA000930A2000030A30080302A06F000CA
:1009060080307002031D892C00302902031CFC2C48
:1009160080302306F00080307002031D942C0030D6
:100926002202031CFC2CAB01AC010A30F40000309F
:10093600F5002208F0002308F10036207808F000C0
:100946007908F1007008B2007108B3003208B000EF
:100956003308B1000A30F4000030F5002208F00038
:100966002308F10036207008AE007108AF0004308D
:100976008500403088000430F3002908F20073082F
:100986000319C92CF20D7210FF3EC32C72088600A3
:100996000F307005F2000430F1003208F0007108E3
:1009A6000319D92CF00D7010FF3ED32C7008720479
:1009B6008700AD0164302D020318F02C1A30FC00BC
:1009C600F830FD00FD0BE52CFC0BE52C0000091CA6
:1009D600EE2C2814F02CAD0ADD2C281CF32CFC2C54
:1009E6000130A902031CAA030130A202031CA303BF
:1009F600802C091CA72D0330A9000030AA00033063
:100A0600B0000030B10080302A06F000803070025D
:100A1600031D0F2D00302902031C552D8030310691
:100A2600F00080307002031D1A2D00303002031CC6
:100A3600552DAB01AC01AE01AF010230850020306F
:100A460088000430F1002908F000710803192F2DE1
:100A5600F00D7010FF3E292D700886000430F1005D
:100A66003008F000710803193C2DF00D7010FF3EA0
:100A7600362D700887000B30FB002630FC005D30F9
:100A8600FD00FD0B442DFC0B442DFB0B442D0000FB
:100A960000000130B002031CB1030130A902031C9F
:100AA600AA03062D851E7E2DAB01AC01A901AA0164
:100AB600AE01AF01B001B1010430F1002908F00028
:100AC600710803196A2DF00D7010FF3E642D700831
:100AD60086000430F1003008F00071080319772D04
:100AE600F00D7010FF3E712D7008870004308500F0
:100AF60040308800A42DAB01AC01A901AA01AE01CA
:100B0600AF01B001B1010430F1002908F00071080D
:100B16000319912DF00D7010FF3E8B2D7008860085
:100B26000430F1003008F000710803199E2DF00D15
:100B36007010FF3E982D7008870001308500103038
:0C0B46008800091CA72DA42DC328A82D91
:02400E004A2F37
:00000001FF
